{"abi":[{"type":"constructor","inputs":[{"name":"_asker_fee_per_10000","type":"uint16","internalType":"uint16"}],"stateMutability":"nonpayable"},{"type":"function","name":"asker_fee_per_10000","inputs":[],"outputs":[{"name":"","type":"uint16","internalType":"uint16"}],"stateMutability":"view"},{"type":"function","name":"cancelQuestion","inputs":[{"name":"questionHash","type":"bytes32","internalType":"bytes32"}],"outputs":[],"stateMutability":"nonpayable"},{"type":"function","name":"createAnswer","inputs":[{"name":"questionHash","type":"bytes32","internalType":"bytes32"},{"name":"answerHash","type":"bytes32","internalType":"bytes32"}],"outputs":[],"stateMutability":"nonpayable"},{"type":"function","name":"createQuestion","inputs":[{"name":"questionHash","type":"bytes32","internalType":"bytes32"}],"outputs":[],"stateMutability":"payable"},{"type":"function","name":"getAnswerer","inputs":[{"name":"","type":"bytes32","internalType":"bytes32"},{"name":"","type":"bytes32","internalType":"bytes32"}],"outputs":[{"name":"","type":"address","internalType":"address payable"}],"stateMutability":"view"},{"type":"function","name":"getAnswererAddress","inputs":[{"name":"questionHash","type":"bytes32","internalType":"bytes32"},{"name":"answerHash","type":"bytes32","internalType":"bytes32"}],"outputs":[{"name":"","type":"address","internalType":"address"}],"stateMutability":"view"},{"type":"function","name":"getQuestion","inputs":[{"name":"","type":"bytes32","internalType":"bytes32"}],"outputs":[{"name":"asker","type":"address","internalType":"address"},{"name":"bounty","type":"uint128","internalType":"uint128"},{"name":"selectedAnswer","type":"bytes32","internalType":"bytes32"},{"name":"status","type":"uint8","internalType":"enum FactHound.QuestionStatus"}],"stateMutability":"view"},{"type":"function","name":"owner","inputs":[],"outputs":[{"name":"","type":"address","internalType":"address"}],"stateMutability":"view"},{"type":"function","name":"selectAnswer","inputs":[{"name":"questionHash","type":"bytes32","internalType":"bytes32"},{"name":"answerHash","type":"bytes32","internalType":"bytes32"}],"outputs":[],"stateMutability":"nonpayable"},{"type":"function","name":"setOwner","inputs":[{"name":"_owner","type":"address","internalType":"address"}],"outputs":[],"stateMutability":"nonpayable"},{"type":"function","name":"total_bounty","inputs":[],"outputs":[{"name":"","type":"uint256","internalType":"uint256"}],"stateMutability":"view"},{"type":"function","name":"withdraw","inputs":[],"outputs":[],"stateMutability":"nonpayable"},{"type":"event","name":"AnswerCreated","inputs":[{"name":"_answerer","type":"address","indexed":true,"internalType":"address"},{"name":"_questionHash","type":"bytes32","indexed":true,"internalType":"bytes32"},{"name":"_answerHash","type":"bytes32","indexed":true,"internalType":"bytes32"}],"anonymous":false},{"type":"event","name":"AnswerRedeemed","inputs":[{"name":"_questionHash","type":"bytes32","indexed":true,"internalType":"bytes32"},{"name":"_answerHash","type":"bytes32","indexed":true,"internalType":"bytes32"}],"anonymous":false},{"type":"event","name":"QuestionCreated","inputs":[{"name":"_asker","type":"address","indexed":true,"internalType":"address"},{"name":"_questionHash","type":"bytes32","indexed":true,"internalType":"bytes32"},{"name":"_bounty","type":"uint256","indexed":false,"internalType":"uint256"}],"anonymous":false},{"type":"error","name":"AnswerExists","inputs":[]},{"type":"error","name":"AnswerNotExists","inputs":[]},{"type":"error","name":"NoFeesToWithdraw","inputs":[]},{"type":"error","name":"NotAuthorized","inputs":[]},{"type":"error","name":"QuestionCancelled","inputs":[]},{"type":"error","name":"QuestionExists","inputs":[]},{"type":"error","name":"QuestionResolved","inputs":[]}],"bytecode":{"object":"0x60a0604052348015600f57600080fd5b50604051610a9f380380610a9f833981016040819052602c916049565b600080546001600160a01b0319163317905561ffff166080526072565b600060208284031215605a57600080fd5b815161ffff81168114606b57600080fd5b9392505050565b608051610a0b6100946000396000818161027301526103070152610a0b6000f3fe6080604052600436106100a65760003560e01c80634bd659f6116100645780634bd659f61461019757806358c039cd146101b75780637345b574146102215780638da5cb5b146102415780639002d218146102615780639d511c0c146102a857600080fd5b8062ef7829146100ab5780630a372356146100c057806310c63710146100e057806313af4035146101095780633ccfd60b1461012957806342d1c07f1461013e575b600080fd5b6100be6100b93660046108e0565b6102c8565b005b3480156100cc57600080fd5b506100be6100db3660046108f9565b6103ce565b3480156100ec57600080fd5b506100f660015481565b6040519081526020015b60405180910390f35b34801561011557600080fd5b506100be61012436600461091b565b610587565b34801561013557600080fd5b506100be6105fb565b34801561014a57600080fd5b5061017f6101593660046108f9565b60036020908152600092835260408084209091529082529020546001600160a01b031681565b6040516001600160a01b039091168152602001610100565b3480156101a357600080fd5b506100be6101b23660046108e0565b61067e565b3480156101c357600080fd5b506102116101d23660046108e0565b600260208190526000918252604090912080546001820154928201546003909201546001600160a01b03909116926001600160801b0316919060ff1684565b6040516101009493929190610961565b34801561022d57600080fd5b506100be61023c3660046108f9565b6107cf565b34801561024d57600080fd5b5060005461017f906001600160a01b031681565b34801561026d57600080fd5b506102957f000000000000000000000000000000000000000000000000000000000000000081565b60405161ffff9091168152602001610100565b3480156102b457600080fd5b5061017f6102c33660046108f9565b6108b6565b6000818152600260205260409020546001600160a01b0316156102fe57604051635823c0dd60e01b815260040160405180910390fd5b600180546127107f000000000000000000000000000000000000000000000000000000000000000061ffff1634908102919091049081900391820183556000848152600260209081526040918290208054336001600160a01b03199091168117825595810180546fffffffffffffffffffffffffffffffff19166001600160801b03871617905560038101805460ff191690559151848152929491928692917f59a8bf2d2d937b4cd7d38914a5161c7a35741c3e9cc55821d6092dd57221e089910160405180910390a350505050565b81600260008281526002602081905260409091206003015460ff16908111156103f9576103f961094b565b0361041757604051635199ecef60e01b815260040160405180910390fd5b82600160008281526002602081905260409091206003015460ff16908111156104425761044261094b565b036104605760405163331a482760e21b815260040160405180910390fd5b600084815260026020908152604080832060038352818420878552909252909120546001600160a01b03166104a85760405163f0c1838d60e01b815260040160405180910390fd5b80546001600160a01b031633146104d25760405163ea8e4eb560e01b815260040160405180910390fd5b6002810184905560018082015481546001600160801b039091169081900382556003808401805460ff191690931790925560008781526020928352604080822088835290935282812054925191926001600160a01b0316916108fc84150291849190818181858888f19350505050158015610551573d6000803e3d6000fd5b50604051859087907facab1bc413f41a50729657daa4738112fa100d7f12ae08573530a62f5587efc290600090a3505050505050565b6000546001600160a01b031633146105b25760405163ea8e4eb560e01b815260040160405180910390fd5b6001600160a01b0381166105d95760405163ea8e4eb560e01b815260040160405180910390fd5b600080546001600160a01b0319166001600160a01b0392909216919091179055565b6000546001600160a01b031633146106265760405163ea8e4eb560e01b815260040160405180910390fd5b6001544703600081900361064d57604051630d00db4d60e31b815260040160405180910390fd5b604051339082156108fc029083906000818181858888f1935050505015801561067a573d6000803e3d6000fd5b5050565b6000546001600160a01b031633146106a95760405163ea8e4eb560e01b815260040160405180910390fd5b80600260008281526002602081905260409091206003015460ff16908111156106d4576106d461094b565b036106f257604051635199ecef60e01b815260040160405180910390fd5b81600160008281526002602081905260409091206003015460ff169081111561071d5761071d61094b565b0361073b5760405163331a482760e21b815260040160405180910390fd5b6000838152600260208190526040822060038101805460ff1916909217909155600180820154815492936001600160801b039091169261077c9084906109b4565b9091555050805460018201546040516001600160a01b03909216916001600160801b0390911680156108fc02916000818181858888f193505050501580156107c8573d6000803e3d6000fd5b5050505050565b81600260008281526002602081905260409091206003015460ff16908111156107fa576107fa61094b565b0361081857604051635199ecef60e01b815260040160405180910390fd5b60008381526003602090815260408083208584529091529020546001600160a01b03161561085957604051635235e81b60e01b815260040160405180910390fd5b600083815260036020908152604080832085845290915280822080546001600160a01b03191633908117909155905184928692917f2bbb57127e1f511334fe38f6f70518bc0d2b43a4f630db4a7ec488ade58f327d9190a4505050565b60008281526003602090815260408083208484529091529020546001600160a01b03165b92915050565b6000602082840312156108f257600080fd5b5035919050565b6000806040838503121561090c57600080fd5b50508035926020909101359150565b60006020828403121561092d57600080fd5b81356001600160a01b038116811461094457600080fd5b9392505050565b634e487b7160e01b600052602160045260246000fd5b6001600160a01b03851681526001600160801b03841660208201526040810183905260808101600383106109a557634e487b7160e01b600052602160045260246000fd5b82606083015295945050505050565b818103818111156108da57634e487b7160e01b600052601160045260246000fdfea2646970667358221220c30a50f3ff6a18066d84bdc7300f494a42764300326cc4982e1117b37cc0eaa064736f6c63430008190033","linkReferences":{}},"methodIdentifiers":{"asker_fee_per_10000()":"9002d218","cancelQuestion(bytes32)":"4bd659f6","createAnswer(bytes32,bytes32)":"7345b574","createQuestion(bytes32)":"00ef7829","getAnswerer(bytes32,bytes32)":"42d1c07f","getAnswererAddress(bytes32,bytes32)":"9d511c0c","getQuestion(bytes32)":"58c039cd","owner()":"8da5cb5b","selectAnswer(bytes32,bytes32)":"0a372356","setOwner(address)":"13af4035","total_bounty()":"10c63710","withdraw()":"3ccfd60b"},"id":23}