{"abi":[{"type":"constructor","inputs":[{"name":"_oracle","type":"address","internalType":"address"},{"name":"_asker_fee_per_10000","type":"uint16","internalType":"uint16"}],"stateMutability":"nonpayable"},{"type":"function","name":"asker_fee_per_10000","inputs":[],"outputs":[{"name":"","type":"uint16","internalType":"uint16"}],"stateMutability":"view"},{"type":"function","name":"cancelQuestion","inputs":[{"name":"questionHash","type":"bytes32","internalType":"bytes32"}],"outputs":[],"stateMutability":"nonpayable"},{"type":"function","name":"createAnswer","inputs":[{"name":"questionHash","type":"bytes32","internalType":"bytes32"},{"name":"answerHash","type":"bytes32","internalType":"bytes32"}],"outputs":[],"stateMutability":"nonpayable"},{"type":"function","name":"createQuestion","inputs":[{"name":"questionHash","type":"bytes32","internalType":"bytes32"}],"outputs":[],"stateMutability":"payable"},{"type":"function","name":"getAnswerer","inputs":[{"name":"","type":"bytes32","internalType":"bytes32"},{"name":"","type":"bytes32","internalType":"bytes32"}],"outputs":[{"name":"","type":"address","internalType":"address payable"}],"stateMutability":"view"},{"type":"function","name":"getAnswererAddress","inputs":[{"name":"questionHash","type":"bytes32","internalType":"bytes32"},{"name":"answerHash","type":"bytes32","internalType":"bytes32"}],"outputs":[{"name":"","type":"address","internalType":"address"}],"stateMutability":"view"},{"type":"function","name":"getQuestion","inputs":[{"name":"","type":"bytes32","internalType":"bytes32"}],"outputs":[{"name":"asker","type":"address","internalType":"address"},{"name":"bounty","type":"uint128","internalType":"uint128"},{"name":"selectedAnswer","type":"bytes32","internalType":"bytes32"},{"name":"status","type":"uint8","internalType":"enum FactHound.QuestionStatus"}],"stateMutability":"view"},{"type":"function","name":"oracle","inputs":[],"outputs":[{"name":"","type":"address","internalType":"address"}],"stateMutability":"view"},{"type":"function","name":"owner","inputs":[],"outputs":[{"name":"","type":"address","internalType":"address"}],"stateMutability":"view"},{"type":"function","name":"redeemAnswer","inputs":[{"name":"questionHash","type":"bytes32","internalType":"bytes32"}],"outputs":[],"stateMutability":"nonpayable"},{"type":"function","name":"rejectAnswer","inputs":[{"name":"questionHash","type":"bytes32","internalType":"bytes32"}],"outputs":[],"stateMutability":"nonpayable"},{"type":"function","name":"selectAnswer","inputs":[{"name":"questionHash","type":"bytes32","internalType":"bytes32"},{"name":"answerHash","type":"bytes32","internalType":"bytes32"}],"outputs":[],"stateMutability":"nonpayable"},{"type":"function","name":"setOwner","inputs":[{"name":"_owner","type":"address","internalType":"address"}],"outputs":[],"stateMutability":"nonpayable"},{"type":"function","name":"total_bounty","inputs":[],"outputs":[{"name":"","type":"uint256","internalType":"uint256"}],"stateMutability":"view"},{"type":"function","name":"withdraw","inputs":[],"outputs":[],"stateMutability":"nonpayable"},{"type":"event","name":"AnswerCreated","inputs":[{"name":"_answerer","type":"address","indexed":true,"internalType":"address"},{"name":"_questionHash","type":"bytes32","indexed":true,"internalType":"bytes32"},{"name":"_answerHash","type":"bytes32","indexed":true,"internalType":"bytes32"}],"anonymous":false},{"type":"event","name":"AnswerRedeemed","inputs":[{"name":"_questionHash","type":"bytes32","indexed":true,"internalType":"bytes32"},{"name":"_answerHash","type":"bytes32","indexed":true,"internalType":"bytes32"}],"anonymous":false},{"type":"event","name":"AnswerRejected","inputs":[{"name":"_questionHash","type":"bytes32","indexed":true,"internalType":"bytes32"},{"name":"_answerHash","type":"bytes32","indexed":true,"internalType":"bytes32"}],"anonymous":false},{"type":"event","name":"AnswerSelected","inputs":[{"name":"_questionHash","type":"bytes32","indexed":true,"internalType":"bytes32"},{"name":"_answerHash","type":"bytes32","indexed":true,"internalType":"bytes32"}],"anonymous":false},{"type":"event","name":"QuestionCreated","inputs":[{"name":"_asker","type":"address","indexed":true,"internalType":"address"},{"name":"_questionHash","type":"bytes32","indexed":true,"internalType":"bytes32"},{"name":"_bounty","type":"uint256","indexed":false,"internalType":"uint256"}],"anonymous":false},{"type":"error","name":"AnswerExists","inputs":[]},{"type":"error","name":"AnswerNotExists","inputs":[]},{"type":"error","name":"InvalidOwner","inputs":[]},{"type":"error","name":"NoAnswerSelected","inputs":[]},{"type":"error","name":"NoFeesToWithdraw","inputs":[]},{"type":"error","name":"NotAuthorized","inputs":[]},{"type":"error","name":"NotOracle","inputs":[]},{"type":"error","name":"NotOwner","inputs":[]},{"type":"error","name":"QuestionCancelled","inputs":[]},{"type":"error","name":"QuestionExists","inputs":[]},{"type":"error","name":"QuestionResolved","inputs":[]}],"bytecode":{"object":"0x60c060405234801561001057600080fd5b50604051610ec9380380610ec983398101604081905261002f9161005c565b600080546001600160a01b031916331790556001600160a01b039190911660805261ffff1660a0526100a9565b6000806040838503121561006f57600080fd5b82516001600160a01b038116811461008657600080fd5b602084015190925061ffff8116811461009e57600080fd5b809150509250929050565b60805160a051610dd86100f16000396000818161032801526103bc0152600081816102b40152818161053d0152818161058b015281816106a90152610ad40152610dd86000f3fe6080604052600436106100e75760003560e01c80634bd659f61161008a5780637df8af4c116100595780637df8af4c146102d65780638da5cb5b146102f65780639002d218146103165780639d511c0c1461035d57600080fd5b80634bd659f6146101f857806358c039cd146102185780637345b574146102825780637dc0d1d0146102a257600080fd5b806313af4035116100c657806313af40351461014a578063231a2f6e1461016a5780633ccfd60b1461018a57806342d1c07f1461019f57600080fd5b8062ef7829146100ec5780630a3723561461010157806310c6371014610121575b600080fd5b6100ff6100fa366004610cad565b61037d565b005b34801561010d57600080fd5b506100ff61011c366004610cc6565b610483565b34801561012d57600080fd5b5061013760015481565b6040519081526020015b60405180910390f35b34801561015657600080fd5b506100ff610165366004610ce8565b61062a565b34801561017657600080fd5b506100ff610185366004610cad565b61069e565b34801561019657600080fd5b506100ff610817565b3480156101ab57600080fd5b506101e06101ba366004610cc6565b60036020908152600092835260408084209091529082529020546001600160a01b031681565b6040516001600160a01b039091168152602001610141565b34801561020457600080fd5b506100ff610213366004610cad565b61089a565b34801561022457600080fd5b50610272610233366004610cad565b600260208190526000918252604090912080546001820154928201546003909201546001600160a01b03909116926001600160801b0316919060ff1684565b6040516101419493929190610d2e565b34801561028e57600080fd5b506100ff61029d366004610cc6565b6109e4565b3480156102ae57600080fd5b506101e07f000000000000000000000000000000000000000000000000000000000000000081565b3480156102e257600080fd5b506100ff6102f1366004610cad565b610ac9565b34801561030257600080fd5b506000546101e0906001600160a01b031681565b34801561032257600080fd5b5061034a7f000000000000000000000000000000000000000000000000000000000000000081565b60405161ffff9091168152602001610141565b34801561036957600080fd5b506101e0610378366004610cc6565b610c83565b6000818152600260205260409020546001600160a01b0316156103b357604051635823c0dd60e01b815260040160405180910390fd5b600180546127107f000000000000000000000000000000000000000000000000000000000000000061ffff1634908102919091049081900391820183556000848152600260209081526040918290208054336001600160a01b03199091168117825595810180546fffffffffffffffffffffffffffffffff19166001600160801b03871617905560038101805460ff191690559151848152929491928692917f59a8bf2d2d937b4cd7d38914a5161c7a35741c3e9cc55821d6092dd57221e089910160405180910390a350505050565b81600460008281526002602052604090206003015460ff1660048111156104ac576104ac610d18565b036104ca57604051635199ecef60e01b815260040160405180910390fd5b600083815260026020908152604080832060038352818420868552909252909120546001600160a01b03166105125760405163f0c1838d60e01b815260040160405180910390fd5b6002600382015460ff16600481111561052d5761052d610d18565b0361058057336001600160a01b037f0000000000000000000000000000000000000000000000000000000000000000161461057b5760405163ea8e4eb560e01b815260040160405180910390fd5b6105e1565b336001600160a01b037f000000000000000000000000000000000000000000000000000000000000000016148015906105c3575080546001600160a01b03163314155b156105e15760405163ea8e4eb560e01b815260040160405180910390fd5b6002810183905560038101805460ff19166001179055604051839085907f70d17c2eccab6e8258e21e9e63aa07d3633c4d3051abfc5c29c0f63fab81037090600090a350505050565b6000546001600160a01b03163314610655576040516330cd747160e01b815260040160405180910390fd5b6001600160a01b03811661067c576040516349e27cff60e01b815260040160405180910390fd5b600080546001600160a01b0319166001600160a01b0392909216919091179055565b336001600160a01b037f000000000000000000000000000000000000000000000000000000000000000016146106e757604051631bc2178f60e01b815260040160405180910390fd5b80600460008281526002602052604090206003015460ff16600481111561071057610710610d18565b0361072e57604051635199ecef60e01b815260040160405180910390fd5b81600360008281526002602052604090206003015460ff16600481111561075757610757610d18565b036107755760405163331a482760e21b815260040160405180910390fd5b60008381526002602081905260408220908101549091036107d15760405162461bcd60e51b8152602060048201526012602482015271139bc8185b9cddd95c881cd95b1958dd195960721b604482015260640160405180910390fd5b60038101805460ff1916600290811790915581015460405185907fc34758e1fd695838d555bcf0217495aa7e01827f755f7096e976f3a7a32a1dac90600090a350505050565b6000546001600160a01b03163314610842576040516330cd747160e01b815260040160405180910390fd5b6001544703600081900361086957604051630d00db4d60e31b815260040160405180910390fd5b604051339082156108fc029083906000818181858888f19350505050158015610896573d6000803e3d6000fd5b5050565b6000546001600160a01b031633146108c5576040516330cd747160e01b815260040160405180910390fd5b80600460008281526002602052604090206003015460ff1660048111156108ee576108ee610d18565b0361090c57604051635199ecef60e01b815260040160405180910390fd5b81600360008281526002602052604090206003015460ff16600481111561093557610935610d18565b036109535760405163331a482760e21b815260040160405180910390fd5b600083815260026020526040812060038101805460ff19166004179055600180820154815492936001600160801b0390911692610991908490610d81565b9091555050805460018201546040516001600160a01b03909216916001600160801b0390911680156108fc02916000818181858888f193505050501580156109dd573d6000803e3d6000fd5b5050505050565b81600460008281526002602052604090206003015460ff166004811115610a0d57610a0d610d18565b03610a2b57604051635199ecef60e01b815260040160405180910390fd5b60008381526003602090815260408083208584529091529020546001600160a01b031615610a6c57604051635235e81b60e01b815260040160405180910390fd5b600083815260036020908152604080832085845290915280822080546001600160a01b03191633908117909155905184928692917f2bbb57127e1f511334fe38f6f70518bc0d2b43a4f630db4a7ec488ade58f327d9190a4505050565b336001600160a01b037f00000000000000000000000000000000000000000000000000000000000000001614610b1257604051631bc2178f60e01b815260040160405180910390fd5b80600460008281526002602052604090206003015460ff166004811115610b3b57610b3b610d18565b03610b5957604051635199ecef60e01b815260040160405180910390fd5b81600360008281526002602052604090206003015460ff166004811115610b8257610b82610d18565b03610ba05760405163331a482760e21b815260040160405180910390fd5b60008381526002602081905260408220908101549091819003610bd657604051631fd4315760e31b815260040160405180910390fd5b60018281015481546001600160801b03909116908190039091556003808401805460ff1916821790556000878152602091825260408082208583529092528181205491516001600160a01b03909216916108fc84150291849190818181858888f19350505050158015610c4d573d6000803e3d6000fd5b50604051829087907facab1bc413f41a50729657daa4738112fa100d7f12ae08573530a62f5587efc290600090a3505050505050565b60008281526003602090815260408083208484529091529020546001600160a01b03165b92915050565b600060208284031215610cbf57600080fd5b5035919050565b60008060408385031215610cd957600080fd5b50508035926020909101359150565b600060208284031215610cfa57600080fd5b81356001600160a01b0381168114610d1157600080fd5b9392505050565b634e487b7160e01b600052602160045260246000fd5b6001600160a01b03851681526001600160801b0384166020820152604081018390526080810160058310610d7257634e487b7160e01b600052602160045260246000fd5b82606083015295945050505050565b81810381811115610ca757634e487b7160e01b600052601160045260246000fdfea2646970667358221220b38987aa643ceda9d914a85ee41215b8c1fd0bfaeb66900c0e2f3a8ff934102a64736f6c63430008190033","linkReferences":{}},"methodIdentifiers":{"asker_fee_per_10000()":"9002d218","cancelQuestion(bytes32)":"4bd659f6","createAnswer(bytes32,bytes32)":"7345b574","createQuestion(bytes32)":"00ef7829","getAnswerer(bytes32,bytes32)":"42d1c07f","getAnswererAddress(bytes32,bytes32)":"9d511c0c","getQuestion(bytes32)":"58c039cd","oracle()":"7dc0d1d0","owner()":"8da5cb5b","redeemAnswer(bytes32)":"7df8af4c","rejectAnswer(bytes32)":"231a2f6e","selectAnswer(bytes32,bytes32)":"0a372356","setOwner(address)":"13af4035","total_bounty()":"10c63710","withdraw()":"3ccfd60b"},"id":25}