{"abi":[{"type":"constructor","inputs":[{"name":"_oracle","type":"address","internalType":"address"},{"name":"_asker_fee_per_10000","type":"uint16","internalType":"uint16"}],"stateMutability":"nonpayable"},{"type":"function","name":"asker_fee_per_10000","inputs":[],"outputs":[{"name":"","type":"uint16","internalType":"uint16"}],"stateMutability":"view"},{"type":"function","name":"cancelQuestion","inputs":[{"name":"questionHash","type":"bytes32","internalType":"bytes32"}],"outputs":[],"stateMutability":"nonpayable"},{"type":"function","name":"createAnswer","inputs":[{"name":"questionHash","type":"bytes32","internalType":"bytes32"},{"name":"answerHash","type":"bytes32","internalType":"bytes32"}],"outputs":[],"stateMutability":"nonpayable"},{"type":"function","name":"createQuestion","inputs":[{"name":"questionHash","type":"bytes32","internalType":"bytes32"}],"outputs":[],"stateMutability":"payable"},{"type":"function","name":"getAnswerer","inputs":[{"name":"","type":"bytes32","internalType":"bytes32"},{"name":"","type":"bytes32","internalType":"bytes32"}],"outputs":[{"name":"","type":"address","internalType":"address payable"}],"stateMutability":"view"},{"type":"function","name":"getQuestion","inputs":[{"name":"","type":"bytes32","internalType":"bytes32"}],"outputs":[{"name":"asker","type":"address","internalType":"address"},{"name":"bounty","type":"uint128","internalType":"uint128"},{"name":"selectedAnswer","type":"bytes32","internalType":"bytes32"},{"name":"status","type":"uint8","internalType":"enum FactHound.QuestionStatus"}],"stateMutability":"view"},{"type":"function","name":"oracle","inputs":[],"outputs":[{"name":"","type":"address","internalType":"address"}],"stateMutability":"view"},{"type":"function","name":"owner","inputs":[],"outputs":[{"name":"","type":"address","internalType":"address"}],"stateMutability":"view"},{"type":"function","name":"redeemAnswer","inputs":[{"name":"questionHash","type":"bytes32","internalType":"bytes32"}],"outputs":[],"stateMutability":"nonpayable"},{"type":"function","name":"rejectAnswer","inputs":[{"name":"questionHash","type":"bytes32","internalType":"bytes32"}],"outputs":[],"stateMutability":"nonpayable"},{"type":"function","name":"selectAnswer","inputs":[{"name":"questionHash","type":"bytes32","internalType":"bytes32"},{"name":"answerHash","type":"bytes32","internalType":"bytes32"}],"outputs":[],"stateMutability":"nonpayable"},{"type":"function","name":"setOwner","inputs":[{"name":"_owner","type":"address","internalType":"address"}],"outputs":[],"stateMutability":"nonpayable"},{"type":"function","name":"total_bounty","inputs":[],"outputs":[{"name":"","type":"uint256","internalType":"uint256"}],"stateMutability":"view"},{"type":"function","name":"withdraw","inputs":[],"outputs":[],"stateMutability":"nonpayable"},{"type":"event","name":"AnswerCreated","inputs":[{"name":"_answerer","type":"address","indexed":true,"internalType":"address"},{"name":"_questionHash","type":"bytes32","indexed":true,"internalType":"bytes32"},{"name":"_answerHash","type":"bytes32","indexed":true,"internalType":"bytes32"}],"anonymous":false},{"type":"event","name":"AnswerRedeemed","inputs":[{"name":"_questionHash","type":"bytes32","indexed":true,"internalType":"bytes32"},{"name":"_answerHash","type":"bytes32","indexed":true,"internalType":"bytes32"}],"anonymous":false},{"type":"event","name":"AnswerRejected","inputs":[{"name":"_questionHash","type":"bytes32","indexed":true,"internalType":"bytes32"},{"name":"_answerHash","type":"bytes32","indexed":true,"internalType":"bytes32"}],"anonymous":false},{"type":"event","name":"AnswerSelected","inputs":[{"name":"_questionHash","type":"bytes32","indexed":true,"internalType":"bytes32"},{"name":"_answerHash","type":"bytes32","indexed":true,"internalType":"bytes32"}],"anonymous":false},{"type":"event","name":"QuestionCreated","inputs":[{"name":"_asker","type":"address","indexed":true,"internalType":"address"},{"name":"_questionHash","type":"bytes32","indexed":true,"internalType":"bytes32"},{"name":"_bounty","type":"uint256","indexed":false,"internalType":"uint256"}],"anonymous":false},{"type":"error","name":"AnswerExists","inputs":[]},{"type":"error","name":"AnswerNotExists","inputs":[]},{"type":"error","name":"InvalidOwner","inputs":[]},{"type":"error","name":"NoAnswerSelected","inputs":[]},{"type":"error","name":"NoFeesToWithdraw","inputs":[]},{"type":"error","name":"NotAuthorized","inputs":[]},{"type":"error","name":"NotOracle","inputs":[]},{"type":"error","name":"NotOwner","inputs":[]},{"type":"error","name":"QuestionCancelled","inputs":[]},{"type":"error","name":"QuestionExists","inputs":[]},{"type":"error","name":"QuestionResolved","inputs":[]}],"bytecode":{"object":"0x60c060405234801561001057600080fd5b50604051610e7a380380610e7a83398101604081905261002f9161005c565b600080546001600160a01b031916331790556001600160a01b039190911660805261ffff1660a0526100a9565b6000806040838503121561006f57600080fd5b82516001600160a01b038116811461008657600080fd5b602084015190925061ffff8116811461009e57600080fd5b809150509250929050565b60805160a051610d896100f16000396000818161031d01526103910152600081816102a901528181610512015281816105600152818161067e0152610aa90152610d896000f3fe6080604052600436106100dc5760003560e01c80634bd659f61161007f5780637dc0d1d0116100595780637dc0d1d0146102975780637df8af4c146102cb5780638da5cb5b146102eb5780639002d2181461030b57600080fd5b80634bd659f6146101ed57806358c039cd1461020d5780637345b5741461027757600080fd5b806313af4035116100bb57806313af40351461013f578063231a2f6e1461015f5780633ccfd60b1461017f57806342d1c07f1461019457600080fd5b8062ef7829146100e15780630a372356146100f657806310c6371014610116575b600080fd5b6100f46100ef366004610c58565b610352565b005b34801561010257600080fd5b506100f4610111366004610c71565b610458565b34801561012257600080fd5b5061012c60015481565b6040519081526020015b60405180910390f35b34801561014b57600080fd5b506100f461015a366004610c93565b6105ff565b34801561016b57600080fd5b506100f461017a366004610c58565b610673565b34801561018b57600080fd5b506100f46107ec565b3480156101a057600080fd5b506101d56101af366004610c71565b60036020908152600092835260408084209091529082529020546001600160a01b031681565b6040516001600160a01b039091168152602001610136565b3480156101f957600080fd5b506100f4610208366004610c58565b61086f565b34801561021957600080fd5b50610267610228366004610c58565b600260208190526000918252604090912080546001820154928201546003909201546001600160a01b03909116926001600160801b0316919060ff1684565b6040516101369493929190610cd9565b34801561028357600080fd5b506100f4610292366004610c71565b6109b9565b3480156102a357600080fd5b506101d57f000000000000000000000000000000000000000000000000000000000000000081565b3480156102d757600080fd5b506100f46102e6366004610c58565b610a9e565b3480156102f757600080fd5b506000546101d5906001600160a01b031681565b34801561031757600080fd5b5061033f7f000000000000000000000000000000000000000000000000000000000000000081565b60405161ffff9091168152602001610136565b6000818152600260205260409020546001600160a01b03161561038857604051635823c0dd60e01b815260040160405180910390fd5b600180546127107f000000000000000000000000000000000000000000000000000000000000000061ffff1634908102919091049081900391820183556000848152600260209081526040918290208054336001600160a01b03199091168117825595810180546fffffffffffffffffffffffffffffffff19166001600160801b03871617905560038101805460ff191690559151848152929491928692917f59a8bf2d2d937b4cd7d38914a5161c7a35741c3e9cc55821d6092dd57221e089910160405180910390a350505050565b81600460008281526002602052604090206003015460ff16600481111561048157610481610cc3565b0361049f57604051635199ecef60e01b815260040160405180910390fd5b600083815260026020908152604080832060038352818420868552909252909120546001600160a01b03166104e75760405163f0c1838d60e01b815260040160405180910390fd5b6002600382015460ff16600481111561050257610502610cc3565b0361055557336001600160a01b037f000000000000000000000000000000000000000000000000000000000000000016146105505760405163ea8e4eb560e01b815260040160405180910390fd5b6105b6565b336001600160a01b037f00000000000000000000000000000000000000000000000000000000000000001614801590610598575080546001600160a01b03163314155b156105b65760405163ea8e4eb560e01b815260040160405180910390fd5b6002810183905560038101805460ff19166001179055604051839085907f70d17c2eccab6e8258e21e9e63aa07d3633c4d3051abfc5c29c0f63fab81037090600090a350505050565b6000546001600160a01b0316331461062a576040516330cd747160e01b815260040160405180910390fd5b6001600160a01b038116610651576040516349e27cff60e01b815260040160405180910390fd5b600080546001600160a01b0319166001600160a01b0392909216919091179055565b336001600160a01b037f000000000000000000000000000000000000000000000000000000000000000016146106bc57604051631bc2178f60e01b815260040160405180910390fd5b80600460008281526002602052604090206003015460ff1660048111156106e5576106e5610cc3565b0361070357604051635199ecef60e01b815260040160405180910390fd5b81600360008281526002602052604090206003015460ff16600481111561072c5761072c610cc3565b0361074a5760405163331a482760e21b815260040160405180910390fd5b60008381526002602081905260408220908101549091036107a65760405162461bcd60e51b8152602060048201526012602482015271139bc8185b9cddd95c881cd95b1958dd195960721b604482015260640160405180910390fd5b60038101805460ff1916600290811790915581015460405185907fc34758e1fd695838d555bcf0217495aa7e01827f755f7096e976f3a7a32a1dac90600090a350505050565b6000546001600160a01b03163314610817576040516330cd747160e01b815260040160405180910390fd5b6001544703600081900361083e57604051630d00db4d60e31b815260040160405180910390fd5b604051339082156108fc029083906000818181858888f1935050505015801561086b573d6000803e3d6000fd5b5050565b6000546001600160a01b0316331461089a576040516330cd747160e01b815260040160405180910390fd5b80600460008281526002602052604090206003015460ff1660048111156108c3576108c3610cc3565b036108e157604051635199ecef60e01b815260040160405180910390fd5b81600360008281526002602052604090206003015460ff16600481111561090a5761090a610cc3565b036109285760405163331a482760e21b815260040160405180910390fd5b600083815260026020526040812060038101805460ff19166004179055600180820154815492936001600160801b0390911692610966908490610d2c565b9091555050805460018201546040516001600160a01b03909216916001600160801b0390911680156108fc02916000818181858888f193505050501580156109b2573d6000803e3d6000fd5b5050505050565b81600460008281526002602052604090206003015460ff1660048111156109e2576109e2610cc3565b03610a0057604051635199ecef60e01b815260040160405180910390fd5b60008381526003602090815260408083208584529091529020546001600160a01b031615610a4157604051635235e81b60e01b815260040160405180910390fd5b600083815260036020908152604080832085845290915280822080546001600160a01b03191633908117909155905184928692917f2bbb57127e1f511334fe38f6f70518bc0d2b43a4f630db4a7ec488ade58f327d9190a4505050565b336001600160a01b037f00000000000000000000000000000000000000000000000000000000000000001614610ae757604051631bc2178f60e01b815260040160405180910390fd5b80600460008281526002602052604090206003015460ff166004811115610b1057610b10610cc3565b03610b2e57604051635199ecef60e01b815260040160405180910390fd5b81600360008281526002602052604090206003015460ff166004811115610b5757610b57610cc3565b03610b755760405163331a482760e21b815260040160405180910390fd5b60008381526002602081905260408220908101549091819003610bab57604051631fd4315760e31b815260040160405180910390fd5b60018281015481546001600160801b03909116908190039091556003808401805460ff1916821790556000878152602091825260408082208583529092528181205491516001600160a01b03909216916108fc84150291849190818181858888f19350505050158015610c22573d6000803e3d6000fd5b50604051829087907facab1bc413f41a50729657daa4738112fa100d7f12ae08573530a62f5587efc290600090a3505050505050565b600060208284031215610c6a57600080fd5b5035919050565b60008060408385031215610c8457600080fd5b50508035926020909101359150565b600060208284031215610ca557600080fd5b81356001600160a01b0381168114610cbc57600080fd5b9392505050565b634e487b7160e01b600052602160045260246000fd5b6001600160a01b03851681526001600160801b0384166020820152604081018390526080810160058310610d1d57634e487b7160e01b600052602160045260246000fd5b82606083015295945050505050565b81810381811115610d4d57634e487b7160e01b600052601160045260246000fd5b9291505056fea2646970667358221220ed604a296994840a5742861e6d3fb46964b83284ef6f1a9ab70e65c5ed3e966e64736f6c63430008190033","linkReferences":{}},"methodIdentifiers":{"asker_fee_per_10000()":"9002d218","cancelQuestion(bytes32)":"4bd659f6","createAnswer(bytes32,bytes32)":"7345b574","createQuestion(bytes32)":"00ef7829","getAnswerer(bytes32,bytes32)":"42d1c07f","getQuestion(bytes32)":"58c039cd","oracle()":"7dc0d1d0","owner()":"8da5cb5b","redeemAnswer(bytes32)":"7df8af4c","rejectAnswer(bytes32)":"231a2f6e","selectAnswer(bytes32,bytes32)":"0a372356","setOwner(address)":"13af4035","total_bounty()":"10c63710","withdraw()":"3ccfd60b"},"id":23}