{"abi":[{"type":"constructor","inputs":[{"name":"_owner","type":"address","internalType":"address"},{"name":"_oracle","type":"address","internalType":"address"},{"name":"_asker","type":"address","internalType":"address"},{"name":"_questionHash","type":"bytes32","internalType":"bytes32"}],"stateMutability":"payable"},{"type":"function","name":"answerInfoMap","inputs":[{"name":"","type":"bytes32","internalType":"bytes32"}],"outputs":[{"name":"","type":"address","internalType":"address payable"}],"stateMutability":"view"},{"type":"function","name":"asker","inputs":[],"outputs":[{"name":"","type":"address","internalType":"address"}],"stateMutability":"view"},{"type":"function","name":"askerSelectionRejected","inputs":[],"outputs":[{"name":"","type":"bool","internalType":"bool"}],"stateMutability":"view"},{"type":"function","name":"cancel","inputs":[],"outputs":[],"stateMutability":"nonpayable"},{"type":"function","name":"certifyAndRedeemAnswer","inputs":[],"outputs":[],"stateMutability":"nonpayable"},{"type":"function","name":"certifyAnswer","inputs":[],"outputs":[],"stateMutability":"nonpayable"},{"type":"function","name":"createAnswer","inputs":[{"name":"answerHash","type":"bytes32","internalType":"bytes32"}],"outputs":[],"stateMutability":"nonpayable"},{"type":"function","name":"isCancelled","inputs":[],"outputs":[{"name":"","type":"bool","internalType":"bool"}],"stateMutability":"view"},{"type":"function","name":"isCertified","inputs":[],"outputs":[{"name":"","type":"bool","internalType":"bool"}],"stateMutability":"view"},{"type":"function","name":"isResolved","inputs":[],"outputs":[{"name":"","type":"bool","internalType":"bool"}],"stateMutability":"view"},{"type":"function","name":"oracle","inputs":[],"outputs":[{"name":"","type":"address","internalType":"address"}],"stateMutability":"view"},{"type":"function","name":"owner","inputs":[],"outputs":[{"name":"","type":"address","internalType":"address"}],"stateMutability":"view"},{"type":"function","name":"questionHash","inputs":[],"outputs":[{"name":"","type":"bytes32","internalType":"bytes32"}],"stateMutability":"view"},{"type":"function","name":"redeemBounty","inputs":[],"outputs":[],"stateMutability":"nonpayable"},{"type":"function","name":"rejectAnswer","inputs":[],"outputs":[],"stateMutability":"nonpayable"},{"type":"function","name":"selectAnswer","inputs":[{"name":"answerHash","type":"bytes32","internalType":"bytes32"}],"outputs":[],"stateMutability":"nonpayable"},{"type":"function","name":"selectedAnswer","inputs":[],"outputs":[{"name":"","type":"bytes32","internalType":"bytes32"}],"stateMutability":"view"},{"type":"event","name":"AnswerCertified","inputs":[{"name":"_answerHash","type":"bytes32","indexed":true,"internalType":"bytes32"}],"anonymous":false},{"type":"event","name":"AnswerCreated","inputs":[{"name":"_answerer","type":"address","indexed":true,"internalType":"address"},{"name":"_answerHash","type":"bytes32","indexed":true,"internalType":"bytes32"}],"anonymous":false},{"type":"event","name":"AnswerRedeemed","inputs":[{"name":"_answerHash","type":"bytes32","indexed":true,"internalType":"bytes32"}],"anonymous":false},{"type":"event","name":"AnswerRejected","inputs":[{"name":"_answerHash","type":"bytes32","indexed":true,"internalType":"bytes32"}],"anonymous":false},{"type":"event","name":"AnswerSelected","inputs":[{"name":"_answerHash","type":"bytes32","indexed":true,"internalType":"bytes32"}],"anonymous":false}],"bytecode":{"object":"0x60806040526040516108ae3803806108ae8339810160408190526020916090565b600080546001600160a01b03199081166001600160a01b03968716178255600180548216958716959095179094556002805490941692909416919091179091556003556004556005805461ffff1916905560d4565b80516001600160a01b0381168114608b57600080fd5b919050565b6000806000806080858703121560a557600080fd5b60ac856075565b935060b8602086016075565b925060c4604086016075565b6060959095015193969295505050565b6107cb806100e36000396000f3fe608060405234801561001057600080fd5b506004361061010b5760003560e01c806395ee1221116100a2578063dbb3f53711610071578063dbb3f537146101f6578063df25bd6814610209578063ea8a1af014610232578063f4e4c8931461023a578063f9b90c841461024d57600080fd5b806395ee1221146101b4578063afa06bda146101c8578063ba5122fb146101d0578063c7a66eb3146101e357600080fd5b806366c3115c116100de57806366c3115c146101645780637dc0d1d01461016e57806382ee280e146101995780638da5cb5b146101a157600080fd5b806319573dd61461011057806328627c75146101325780632d7588e5146101445780633750963f1461015b575b600080fd5b60055461011d9060ff1681565b60405190151581526020015b60405180910390f35b60055461011d90610100900460ff1681565b61014d60045481565b604051908152602001610129565b61014d60035481565b61016c610255565b005b600154610181906001600160a01b031681565b6040516001600160a01b039091168152602001610129565b61016c6102ab565b600054610181906001600160a01b031681565b60055461011d906301000000900460ff1681565b61016c61033a565b61016c6101de36600461077c565b610386565b600254610181906001600160a01b031681565b60055461011d9062010000900460ff1681565b61018161021736600461077c565b6006602052600090815260409020546001600160a01b031681565b61016c6104a1565b61016c61024836600461077c565b610534565b61016c6105b9565b6001546001600160a01b0316331461026c57600080fd5b6005546301000000900460ff161561028357600080fd5b60055462010000900460ff161561029957600080fd5b6102a16105fd565b6102a961068d565b565b6001546001600160a01b031633146102c257600080fd5b6005546301000000900460ff16156102d957600080fd5b60055462010000900460ff16156102ef57600080fd5b6004546000036102fe57600080fd5b6005805461ffff191660011790556004546040517fdefda140477b38fbc489c7f1d42a03d83e86aea0829b02f98d7303bb088df1c390600090a2565b6001546001600160a01b0316331461035157600080fd5b6005546301000000900460ff161561036857600080fd5b60055462010000900460ff161561037e57600080fd5b6102a96105fd565b6005546301000000900460ff161561039d57600080fd5b60055462010000900460ff16156103b357600080fd5b60055460ff16156103da576001546001600160a01b031633146103d557600080fd5b610406565b6001546001600160a01b03163314806103fd57506002546001600160a01b031633145b61040657600080fd5b6000818152600660205260409020546001600160a01b031661046e5760405162461bcd60e51b815260206004820152601b60248201527f416e73776572206e6f7420696e20616e73776572496e666f4d61700000000000604482015260640160405180910390fd5b600481905560405181907fbe3c4d670bea5fea787219aab3c9a99638664f3a45c87660a19d470602119ee290600090a250565b6000546001600160a01b031633146104b857600080fd5b6005546301000000900460ff16156104cf57600080fd5b60055462010000900460ff16156104e557600080fd5b6005805463ff000000191663010000001790556002546040516001600160a01b03909116904780156108fc02916000818181858888f19350505050158015610531573d6000803e3d6000fd5b50565b6005546301000000900460ff161561054b57600080fd5b6000818152600660205260409020546001600160a01b03161561056d57600080fd5b60008181526006602052604080822080546001600160a01b03191633908117909155905183927fca3faa224246190de1d70f468c65b75c8560e80e802f4e89ce3cc654bd4911f891a350565b6001546001600160a01b031633146105d057600080fd5b6005546301000000900460ff16156105e757600080fd5b60055462010000900460ff16156102a157600080fd5b6001546001600160a01b0316331461061457600080fd5b6005546301000000900460ff161561062b57600080fd5b60055462010000900460ff161561064157600080fd5b60045460000361065057600080fd5b6005805461ff0019166101001790556004546040517f13e293e36f469bb1bf526f626e41bc245b4c188f0cfd0a6af6b1b59c263048d090600090a2565b6001546001600160a01b031633146106a457600080fd5b6005546301000000900460ff16156106bb57600080fd5b60055462010000900460ff16156106d157600080fd5b6004546000036106e057600080fd5b600554610100900460ff166106f457600080fd5b6004546000908152600660205260408082205490516001600160a01b03909116914780156108fc02929091818181858888f1935050505015801561073c573d6000803e3d6000fd5b506005805462ff00001916620100001790556004546040517fd9e23c0b12437b8a4a664ab613095739a7b50d0a13a89558b033cf890f7a7bce90600090a2565b60006020828403121561078e57600080fd5b503591905056fea26469706673582212206ca8de1ab8b2d2d50b7ca84f60d8da5801b23cbce363795f310ee45dd57902aa64736f6c63430008190033","linkReferences":{}},"methodIdentifiers":{"answerInfoMap(bytes32)":"df25bd68","asker()":"c7a66eb3","askerSelectionRejected()":"19573dd6","cancel()":"ea8a1af0","certifyAndRedeemAnswer()":"66c3115c","certifyAnswer()":"afa06bda","createAnswer(bytes32)":"f4e4c893","isCancelled()":"95ee1221","isCertified()":"28627c75","isResolved()":"dbb3f537","oracle()":"7dc0d1d0","owner()":"8da5cb5b","questionHash()":"3750963f","redeemBounty()":"f9b90c84","rejectAnswer()":"82ee280e","selectAnswer(bytes32)":"ba5122fb","selectedAnswer()":"2d7588e5"},"id":23}