{"abi":[{"type":"constructor","inputs":[{"name":"_oracle","type":"address","internalType":"address"},{"name":"_asker_fee_per_10000","type":"uint8","internalType":"uint8"}],"stateMutability":"nonpayable"},{"type":"function","name":"asker_fee_per_10000","inputs":[],"outputs":[{"name":"","type":"uint8","internalType":"uint8"}],"stateMutability":"view"},{"type":"function","name":"createQuestion","inputs":[{"name":"questionHash","type":"bytes32","internalType":"bytes32"}],"outputs":[],"stateMutability":"payable"},{"type":"function","name":"getQuestion","inputs":[{"name":"","type":"bytes32","internalType":"bytes32"}],"outputs":[{"name":"","type":"address","internalType":"address"}],"stateMutability":"view"},{"type":"function","name":"oracle","inputs":[],"outputs":[{"name":"","type":"address","internalType":"address"}],"stateMutability":"view"},{"type":"function","name":"owner","inputs":[],"outputs":[{"name":"","type":"address","internalType":"address"}],"stateMutability":"view"},{"type":"function","name":"setOwner","inputs":[{"name":"_owner","type":"address","internalType":"address"}],"outputs":[],"stateMutability":"nonpayable"},{"type":"event","name":"QuestionCreated","inputs":[{"name":"_asker","type":"address","indexed":true,"internalType":"address"},{"name":"_questionHash","type":"bytes32","indexed":true,"internalType":"bytes32"},{"name":"_bounty","type":"uint256","indexed":false,"internalType":"uint256"}],"anonymous":false}],"bytecode":{"object":"0x6080604052348015600f57600080fd5b50604051610ccf380380610ccf833981016040819052602c916070565b600080546001600160a01b031916331790556001805460ff909216600160a01b026001600160a81b03199092166001600160a01b03939093169290921717905560b9565b60008060408385031215608257600080fd5b82516001600160a01b0381168114609857600080fd5b602084015190925060ff8116811460ae57600080fd5b809150509250929050565b610c07806100c86000396000f3fe6080604052600436106100545760003560e01c8062ef78291461005957806313af40351461006e57806358c039cd1461008e5780637dc0d1d0146100e15780638da5cb5b146101015780639002d21814610121575b600080fd5b61006c61006736600461036b565b610154565b005b34801561007a57600080fd5b5061006c610089366004610384565b610325565b34801561009a57600080fd5b506100c46100a936600461036b565b6002602052600090815260409020546001600160a01b031681565b6040516001600160a01b0390911681526020015b60405180910390f35b3480156100ed57600080fd5b506001546100c4906001600160a01b031681565b34801561010d57600080fd5b506000546100c4906001600160a01b031681565b34801561012d57600080fd5b5060015461014290600160a01b900460ff1681565b60405160ff90911681526020016100d8565b6000818152600260205260409020546001600160a01b0316156101be5760405162461bcd60e51b815260206004820152601760248201527f5175657374696f6e20416c72656164792045786973747300000000000000000060448201526064015b60405180910390fd5b6001543490600090600160a01b900460ff166101dc612710846103ca565b6101e691906103ec565b905060006101f48284610409565b6000546001546040516001600160a01b0392831692909116903390889061021a9061035e565b6001600160a01b03948516815292841660208401529216604082015260608101919091526080016040518091039082f090508015801561025e573d6000803e3d6000fd5b50905061026b8284610409565b816001600160a01b031631146102ba5760405162461bcd60e51b81526020600482015260146024820152732137bab73a3c9039b2ba3ab8103330b4b632b21760611b60448201526064016101b5565b600084815260026020526040902080546001600160a01b0319166001600160a01b03831617905583337f59a8bf2d2d937b4cd7d38914a5161c7a35741c3e9cc55821d6092dd57221e08961030e8587610409565b60405190815260200160405180910390a350505050565b6000546001600160a01b0316331461033c57600080fd5b600080546001600160a01b0319166001600160a01b0392909216919091179055565b6107b58061041d83390190565b60006020828403121561037d57600080fd5b5035919050565b60006020828403121561039657600080fd5b81356001600160a01b03811681146103ad57600080fd5b9392505050565b634e487b7160e01b600052601160045260246000fd5b6000826103e757634e487b7160e01b600052601260045260246000fd5b500490565b8082028115828204841417610403576104036103b4565b92915050565b81810381811115610403576104036103b456fe60806040526040516107b53803806107b58339810160408190526020916090565b600080546001600160a01b03199081166001600160a01b03968716178255600180548216958716959095179094556002805490941692909416919091179091556003556004556005805461ffff1916905560d4565b80516001600160a01b0381168114608b57600080fd5b919050565b6000806000806080858703121560a557600080fd5b60ac856075565b935060b8602086016075565b925060c4604086016075565b6060959095015193969295505050565b6106d2806100e36000396000f3fe608060405234801561001057600080fd5b50600436106101005760003560e01c8063afa06bda11610097578063df25bd6811610066578063df25bd68146101f6578063ea8a1af01461021f578063f4e4c89314610227578063f9b90c841461023a57600080fd5b8063afa06bda146101b5578063ba5122fb146101bd578063c7a66eb3146101d0578063dbb3f537146101e357600080fd5b80637dc0d1d0116100d35780637dc0d1d01461015957806382ee280e146101845780638da5cb5b1461018e57806395ee1221146101a157600080fd5b806319573dd61461010557806328627c75146101275780632d7588e5146101395780633750963f14610150575b600080fd5b6005546101129060ff1681565b60405190151581526020015b60405180910390f35b60055461011290610100900460ff1681565b61014260045481565b60405190815260200161011e565b61014260035481565b60015461016c906001600160a01b031681565b6040516001600160a01b03909116815260200161011e565b61018c610242565b005b60005461016c906001600160a01b031681565b600554610112906301000000900460ff1681565b61018c6102d1565b61018c6101cb366004610683565b610361565b60025461016c906001600160a01b031681565b6005546101129062010000900460ff1681565b61016c610204366004610683565b6006602052600090815260409020546001600160a01b031681565b61018c61047c565b61018c610235366004610683565b61050f565b61018c610594565b6001546001600160a01b0316331461025957600080fd5b6005546301000000900460ff161561027057600080fd5b60055462010000900460ff161561028657600080fd5b60045460000361029557600080fd5b6005805461ffff191660011790556004546040517fdefda140477b38fbc489c7f1d42a03d83e86aea0829b02f98d7303bb088df1c390600090a2565b6001546001600160a01b031633146102e857600080fd5b6005546301000000900460ff16156102ff57600080fd5b60055462010000900460ff161561031557600080fd5b60045460000361032457600080fd5b6005805461ff0019166101001790556004546040517f13e293e36f469bb1bf526f626e41bc245b4c188f0cfd0a6af6b1b59c263048d090600090a2565b6005546301000000900460ff161561037857600080fd5b60055462010000900460ff161561038e57600080fd5b60055460ff16156103b5576001546001600160a01b031633146103b057600080fd5b6103e1565b6001546001600160a01b03163314806103d857506002546001600160a01b031633145b6103e157600080fd5b6000818152600660205260409020546001600160a01b03166104495760405162461bcd60e51b815260206004820152601b60248201527f416e73776572206e6f7420696e20616e73776572496e666f4d61700000000000604482015260640160405180910390fd5b600481905560405181907fbe3c4d670bea5fea787219aab3c9a99638664f3a45c87660a19d470602119ee290600090a250565b6000546001600160a01b0316331461049357600080fd5b6005546301000000900460ff16156104aa57600080fd5b60055462010000900460ff16156104c057600080fd5b6005805463ff000000191663010000001790556002546040516001600160a01b03909116904780156108fc02916000818181858888f1935050505015801561050c573d6000803e3d6000fd5b50565b6005546301000000900460ff161561052657600080fd5b6000818152600660205260409020546001600160a01b03161561054857600080fd5b60008181526006602052604080822080546001600160a01b03191633908117909155905183927fca3faa224246190de1d70f468c65b75c8560e80e802f4e89ce3cc654bd4911f891a350565b6000546001600160a01b031633146105ab57600080fd5b6005546301000000900460ff16156105c257600080fd5b60055462010000900460ff16156105d857600080fd5b6004546000036105e757600080fd5b600554610100900460ff166105fb57600080fd5b6004546000908152600660205260408082205490516001600160a01b03909116914780156108fc02929091818181858888f19350505050158015610643573d6000803e3d6000fd5b506005805462ff00001916620100001790556004546040517fd9e23c0b12437b8a4a664ab613095739a7b50d0a13a89558b033cf890f7a7bce90600090a2565b60006020828403121561069557600080fd5b503591905056fea26469706673582212202bae2f08538d7328ea02b3a44fd8f8d2998d211331cc0936828869c9b9acfb5264736f6c63430008190033a26469706673582212205d8d3aea1515d7c09b4d6f8f74e7b1040c0fe5d50a7f9fa3f8a41773afff738064736f6c63430008190033","linkReferences":{}},"methodIdentifiers":{"asker_fee_per_10000()":"9002d218","createQuestion(bytes32)":"00ef7829","getQuestion(bytes32)":"58c039cd","oracle()":"7dc0d1d0","owner()":"8da5cb5b","setOwner(address)":"13af4035"},"id":24}